:020000040800F2
:10000000B0060020C5140008CD140008CF14000865
:10001000D1140008D3140008D51400080000000013
:10002000000000000000000000000000D7140008DD
:10003000D914000800000000DB140008E1030008E8
:10004000DF140008DF140008DF140008DF140008C4
:10005000DF140008DF140008DF140008DF140008B4
:10006000DF140008DF140008DF140008DF140008A4
:10007000DF140008DF140008DF140008DF14000894
:10008000DF140008DF140008DF140008DF14000884
:10009000DF140008DF140008DF140008DF14000874
:1000A000DF140008DF140008DF140008DF14000864
:1000B000DF140008DF14000800000000DF1400084F
:1000C000DF1400080000000000000000DF1400083A
:1000D00000000000DF140008DF140008000000002A
:1000E000DF140008DF140008DF14000800F002F835
:1000F00000F03FF80AA090E8000C82448344AAF183
:100100000107DA4501D100F034F8AFF2090EBAE880
:100110000F0013F0010F18BFFB1A43F0010318473B
:100120003418000054180000103A24BF78C878C171
:10013000FAD8520724BF30C830C144BF04680C60ED
:10014000704700000023002400250026103A28BF35
:1001500078C1FBD8520728BF30C148BF0B60704739
:10016000692901F00783002070471FB51FBD10B536
:1001700010BD01F0B4FB1146FFF7F7FF00F0D4F813
:1001800001F0D2FB03B4FFF7F2FF03BC01F0DAFB8E
:1001900010B50121884800F080FC00BF022186488C
:1001A00000F0ECFD0028F9D0834800F009FD10BDF7
:1001B00000B587B00121480201F020F900208DF838
:1001C0000D00059004904FF46020049000200290F0
:1001D00001208DF8180000208DF80C0002A9764847
:1001E00000F0EFFB0121744800F017FC0523012209
:1001F0000221714800F07DFC0121042001F0FEF88D
:100200000420ADF8040000208DF8070001A96B4818
:1002100000F038FE07B000BD10B50121664800F0BF
:100220003CFC00BF0221644800F0A8FD0028F9D082
:10023000614800F0C5FC10BD00B587B0012148023F
:1002400001F0DCF800208DF80D00059004904FF4CB
:10025000602004900020029001208DF818000020FA
:100260008DF80C0002A9544800F0ABFB0121524864
:1002700000F0D3FB0523012211464F4800F039FC62
:100280000121042001F0BAF80220ADF8040000209A
:100290008DF8070001A9494800F0F4FD07B000BD42
:1002A00010B50121444800F0F8FB00BF022142488C
:1002B00000F064FD0028F9D03F4800F081FC10BD3B
:1002C00000B587B00121480201F098F800208DF8B0
:1002D0000D00059004904FF46020049000200290DF
:1002E00001208DF8180000208DF80C0002A932487A
:1002F00000F067FB0121304800F08FFB052301224D
:1003000000212D4800F0F5FB0121042001F076F8D2
:100310000120ADF8040000208DF8070001A927484E
:1003200000F0B0FD07B000BD00F063F8042000F05D
:10033000D1F9FFF7C5FFFFF77FFF3BE0FFF7C0FFF5
:10034000FFF7AEFF1E490880084602881DA11F481E
:1003500001F0C8F90121084600F028FA1B4800F016
:10036000DCFAFFF769FFFFF757FF194908800846D5
:10037000028814A1174801F0B5F90021012000F00E
:1003800015FA144800F0C9FAFFF712FFFFF700FF53
:1003900011490880084602880AA1104801F0A2F914
:1003A0000121082000F002FA0C4800F0B6FA012002
:1003B00000F051F8C2E700000024014000080140AD
:1003C00000000020256920202000000002000020FD
:1003D000080000200A000020100000201200002069
:1003E0002348006820B122480068401E2049086068
:1003F000704770B501F01CF91E4800681E4AB0FB3A
:10040000F2F1481EB0F1807F00D31BE0481E4FF090
:10041000E022506150170F22002804DB13071C0E46
:10042000164B1C5406E013071D0E154B00F00F046D
:10043000241F1D5500BF00204FF0E02290610720CF
:10044000106100BF70BD0A49086000BF0849096813
:100450000029FBD1704700B5024603E04FF47A70E3
:10046000FFF7F1FF101EA2F10102F7D100BD00005D
:10047000180000203800002040420F0000E400E097
:1004800018ED00E010B54FF48040FB4908600220F1
:10049000FFF7D9FF4FF48040F749091D086010BDF0
:1004A00070B504460D464FF40050F349091D08602D
:1004B0001DB14010091F086004E04FF48050EE4960
:1004C000091D08604FF47060EC4908801020C87066
:1004D00002208870EA4800F0D5FC4FF40060E8493B
:1004E0001431086040100860401008604010086037
:1004F00004F0800010B1C814091F086004F0400027
:1005000020B14FF48060DE491031086004F0200013
:1005100020B14FF40070DA491031086004F0100087
:1005200020B14FF48070D64910310860FFF7AAFF60
:100530004FF40060D2491431086040100860401048
:1005400008604010086004F0080010B1C814091FCA
:10055000086004F0040020B14FF48060C8491031F5
:10056000086004F0020020B14FF40070C44910315B
:10057000086004F0010020B14FF48070C0491031D0
:100580000860FFF77FFF4FF40060BD49103108603D
:1005900040100860401008604010086070BD70B5E1
:1005A000054600244FF40050B349086015B14010CF
:1005B000086004E04FF48050AF49091D08604FF413
:1005C0007060AE4908804820C87002208870AC482E
:1005D00000F058FC4FF48040A74908600220FFF764
:1005E00032FFA7480830006800F4807008B144F07A
:1005F0001004A3480830006800F4007008B144F00B
:1006000020049F480830006800F4806008B144F07E
:1006100040049B480830006800F4006008B144F0D2
:1006200080044FF480409449091D08600220FFF7C0
:100630000AFF4FF48040904908600220FFF703FF53
:100640008F480830006800F4807008B144F001045D
:100650008B480830006800F4007008B144F00204D0
:1006600087480830006800F4806008B144F0040452
:1006700083480830006800F4006008B144F00804C2
:100680004FF480407C49091D0860204670BD10B5BC
:1006900000BF0020FFF783FF00F080000028F8D1A2
:1006A0000420FFF7D0FE0020FFF779FF10BD10B542
:1006B0000446FFF7ECFF00212046FFF7F1FE10BDD6
:1006C00010B50620FFF7F3FF10BD10B50120FFF7AE
:1006D000EEFF10BD10B50446FFF78BFE0121082088
:1006E00000F08CFE0121042000F088FE4FF4E04071
:1006F000624908801020C870022088705E48103857
:1007000000F0C0FB4FF470605C4908801020C87096
:10071000022088705A4800F0B5FB4FF47A50FFF77A
:1007200092FE4FF400705649103108604010086086
:10073000FFF7A8FE41F28830FFF785FEFFF7A2FE23
:100740004020FFF780FEFFF79DFE4020FFF77BFE75
:100750004FF400704A49103108604010091D0860CC
:10076000FFF790FE4020FFF76EFE2820FFF79FFF67
:100770000820FFF79CFFFFF7A8FFFFF7A1FF414804
:1007800004700146097841F00800FFF790FF10BDA2
:1007900010B50446FFF77BFF01212046FFF780FEDE
:1007A00010BD10B50220FFF782FF10BD70B50446E2
:1007B0000D462DB9E1B241F08000FFF778FF06E069
:1007C00004F14001C9B241F08000FFF770FF70BD35
:1007D00010B5FFF75CFF10BD10B50420FFF767FFF1
:1007E00010BD10B50720FFF762FF10BD10B5052042
:1007F000FFF75DFF10BD10B52248007840F00400FF
:1008000020490870097841F00800FFF750FF10BD3B
:1008100010B51C48007820F004001A4908700978C7
:1008200041F00800FFF743FF10BD10B515480078F0
:1008300040F0020013490870097841F00800FFF702
:1008400036FF10BD10B50F48007820F002000D49AA
:100850000870097841F00800FFF729FF10BD10B5B6
:100860000848007840F0010006490870097841F016
:100870000800FFF71CFF10BD100C01401E000020F7
:10088000000801401C00002010B53948007820F015
:10089000010037490870097841F00800FFF707FFA9
:1008A00010BD10B51820FFF702FF10BD10B51C20B9
:1008B000FFF7FDFE10BD10B51020FFF7F8FE10BDCC
:1008C00010B51420FFF7F3FE10BD70B50546402D9E
:1008D00001DA402400E0002444F08000FFF7E7FE46
:1008E00070BD70B50546FFF773FF04460A2D03D1AE
:1008F0002046FFF7EAFF0FE0102C04D10021C020B2
:10090000FFF7CEFD05E0502C03D100218020FFF73A
:10091000C7FD2846FFF73CFF70BD10B5044603E055
:1009200014F8010BFFF7DDFF20780028F8D110BD87
:1009300070B504460E4604F00704402141EAC400A5
:10094000FFF7B5FE002503E0705DFFF721FF6D1C8A
:10095000082DF9DB70BD70B505460E4614463146CC
:100960002846FFF723FF2046FFF712FF70BD000067
:100970001C00002010B50446FA48844208D1012129
:10098000401500F055FD0021601500F051FD17E005
:10099000F548844208D10121001500F049FD0021ED
:1009A000201500F045FD0BE0F048844208D10121FC
:1009B000C80300F03DFD00214FF4004000F038FD79
:1009C00010BD30B50246002000235068E84C20409E
:1009D0000D790C6844EA0524204350609068E54C8A
:1009E0002040D1E902542C434D7944EA4504204388
:1009F0009060D06A20F470000C7C641EE4B2234343
:100A000040EA0350D06230BD0021016001714171A4
:100A10008160C16001210174704721B1826842F098
:100A20000102826003E0826822F001028260704766
:100A300021B1826842F48072826003E0826822F40D
:100A400080728260704710B50023CBB21AB144683F
:100A50001C43446002E044689C43446010BD8168CC
:100A600041F0080181607047014600208A6802F069
:100A700008020AB1012000E000207047816841F0BF
:100A8000040181607047014600208A6802F0040278
:100A90000AB1012000E00020704721B1826842F4D1
:100AA000A002826003E0826822F4A00282607047A4
:100AB000014600208A6802F480020AB1012000E0A9
:100AC0000020704710B50A4600210023416821F438
:100AD0006041531E41EA4331416010BD21B142687B
:100AE00042F40062426003E0426822F40062426025
:100AF0007047F0B504460D4600200021092D11DD98
:100B0000E068A5F10A0606EB4607072606FA07F194
:100B10008843A5F10A0606EB460603FA06F10843E8
:100B2000E0600CE0206905EB4507072606FA07F1AF
:100B3000884305EB450603FA06F108432061072ABE
:100B40000FDA606B561E06EB86071F2606FA07F1C2
:100B50008843561E06EB860605FA06F108436063D5
:100B600022E00D2A0FDA206BD61F06EB86071F2620
:100B700006FA07F18843D61F06EB860605FA06F14A
:100B80000843206310E0E06AA2F10D0606EB860739
:100B90001F2606FA07F18843A2F10D0606EB86062A
:100BA00005FA06F10843E062F0BD21B1826842F423
:100BB0008012826003E0826822F4801282607047B3
:100BC0000146C86C80B2704766484C300068704778
:100BD00021B1426842F48062426003E0426822F43C
:100BE00080624260704721B1426842F480524260A4
:100BF00003E0426822F48052426070470A460021B6
:100C0000816821F4E04111438160704721B182681D
:100C100042F40042826003E0826822F40042826073
:100C2000704721B1826842F40212826003E0826858
:100C300022F4021282607047014600208A6802F4A2
:100C400000120AB1012000E000207047F0B5044610
:100C50001546002000220026092911DDE068A1F1D7
:100C60000A0707EB470C072707FA0CF29043A1F19C
:100C70000A0707EB470703FA07F21043E0600CE0AE
:100C8000206901EB410C072707FA0CF2904301EBB6
:100C9000410703FA07F210432061A06BC0F301562D
:100CA000EF1C06F1010CA7EB0C0707EB870C1F27C5
:100CB00007FA0CF29043EF1C06F1010CA7EB0C07AE
:100CC00007EB870701FA07F21043A063F0BD10B5E8
:100CD0000A4600210023816B21F44011531E41EA92
:100CE0000351816310BD08B5002300930090009B61
:100CF0000B440093009B1A6008BD08B50246002013
:100D00000090009201F12800009B18440090009888
:100D1000006880B208BD0A4600214168164B1940A0
:100D20001143416070474162826270470A46002168
:100D3000416821F01F0111434160704740B10949EA
:100D40000831096841F40001064A0832116007E0E1
:100D500004490831096821F40001024A083211608F
:100D6000704700000024014000280140003C014081
:100D7000FFFEF0FFFDF7F1FFFFFD3FFF0246002001
:100D800013680B400BB1012000E000207047CA43FC
:100D90000260704770B502460020002300240B1249
:100DA0005568CEB205EA060415681D4015B10CB1B0
:100DB000012000E0002070BD00220A12D34303602E
:100DC0007047000010B50446CC48844208D1012188
:100DD000042000F02DFB0021042000F029FB46E058
:100DE000C748844208D10121082000F021FB0021DE
:100DF000082000F01DFB3AE0C248844208D10121DE
:100E0000102000F015FB0021102000F011FB2EE057
:100E1000BD48844208D10121202000F009FB0021B7
:100E2000202000F005FB22E0B848844208D10121CF
:100E3000402000F0FDFA0021402000F0F9FA16E011
:100E4000B348844208D10121802000F0F1FA00214A
:100E5000802000F0EDFA0AE0AE48844207D101217B
:100E6000801500F0E5FA0021A01500F0E1FA10BDB0
:100E700010B50121084600F0DBFA0021012000F046
:100E8000D7FA10BD2DE9F0410246002500260020CA
:100E900000230024002791F803C00CF00F0591F8FF
:100EA00003C00CF0100CBCF1000F03D091F802C08D
:100EB0004CEA050591F800C0BCF1000F31D0146870
:100EC00000202BE04FF0010C0CFA00F3B1F800C049
:100ED0000CEA03069E4220D183004FF00F0C0CFA5F
:100EE00003F7BC4305FA03FC4CEA040491F803C081
:100EF000BCF1280F06D14FF0010C0CFA00FCC2F82F
:100F000014C00AE091F803C0BCF1480F05D14FF0BE
:100F1000010C0CFA00FCC2F810C0401C0828D1D308
:100F20001460B1F800C0BCF1FF0F34DD546800203C
:100F30002EE000F1080C4FF0010808FA0CF3B1F8AC
:100F400000C00CEA03069E4221D183004FF00F0C33
:100F50000CFA03F7BC4305FA03FC4CEA040491F8CD
:100F600003C0BCF1280F05D100F1080C08FA0CF8F9
:100F7000C2F8148091F803C0BCF1480F07D100F10A
:100F8000080C4FF0010808FA0CF8C2F81080401C59
:100F90000828CED35460BDE8F0814FF6FF71018080
:100FA000022181700421C1707047024600209368BD
:100FB0000B400BB1012000E000207047014688681B
:100FC00080B2704702460020D3680B400BB101206D
:100FD00000E0002070470146C86880B27047016198
:100FE0007047416170470AB1016100E0416170479B
:100FF000C16070474FF480320A438261816182612F
:1010000082698269704702460020434B18684FF698
:101010008073184040EA021008433F4B1860704745
:101020003E49C8617047F0B50A46002300240021FC
:10103000002500F00046B6F1004F02D1364EF169AE
:1010400001E0354E7168C0F3034583B200F44016E9
:10105000B6F5401F08D121F070612F4E766826F05A
:1010600070662D4F7E6012E000F48016B6F5801F8A
:1010700006D1032606FA05F4A14341F0706106E0AB
:10108000460D360103FA06F6B14341F0706122B114
:10109000460D360103FA06F6314300F00046B6F17C
:1010A000004F02D11C4EF16101E01B4E7160F0BD9A
:1010B00030B500228B071C0F0F2303FA04F2164BE6
:1010C00008338C1053F824309343134C08348D109C
:1010D00044F8253023468C1053F824308C07240F15
:1010E00000FA04F423430C4C08348D1044F82530E6
:1010F00030BD0A49DC31086070470000000801403B
:10110000000C014000100140001401400018014093
:10111000001C01400020014000000140000020426E
:10112000DF48006840F00100DD490860084640687B
:10113000DC490840DA49486008460068DA49084056
:10114000D74908600846006820F4802008600846F7
:10115000406820F4FE0048604FF41F00886070472C
:10116000CF49096821F48031CD4A116011460968E0
:1011700021F480211160B0F5803F03D0B0F5802FBD
:101180000ED106E0C649096841F48031C44A1160B5
:1011900007E0C349096841F4A021C14A116000E099
:1011A00000BF00BF704710B5014600220023002099
:1011B0004A11012A02D1BA4C236806E0022A02D160
:1011C000B74C236A01E0B64C636A01F01F020124A8
:1011D00094401C400CB1012000E0002010BD38B547
:1011E000002000900024002500BF3120FFF7DBFF26
:1011F00005460098401C00900098B0F5A06F01D003
:10120000002DF2D03120FFF7CEFF08B1012400E01D
:101210000024204638BD01460020A14A106820F075
:10122000F80040EAC10010607047A04908607047AC
:10123000024600209A4B586820F47C1042EA0103D1
:101240001843974B586070479849086670470146A5
:101250000020934A506820F0030008435060704714
:101260008F48406800F00C007047014600208C4A0F
:10127000506820F0F000084350607047014600209D
:10128000874A506820F4E060084350607047014688
:101290000020834A506820F4605040EAC10050604A
:1012A000704729B17E4A527A02437D4B5A7204E05C
:1012B0007B4A527A82437A4B5A7270477B49D831C3
:1012C0000860704701460020754A506820F440408D
:1012D0000843506070470021714A20321170704AF3
:1012E00082F82010012802D004280AD104E001214C
:1012F0006B4A2032117005E00521694A20321170D5
:1013000000E000BF00BF704769490860704764494A
:10131000096A0143624A11627047654944390860AD
:10132000704730B500210022002400235C4D6D6819
:1013300005F00C0121B1042905D0082923D105E0CD
:101340005C4D056022E05B4D05601FE0544D6D680B
:1013500005F47012524D6D6805F48034022505EBDA
:1013600092421CB9544D554305600BE04C4D6D68DD
:1013700005F400351DB1504D5543056002E04D4D5B
:101380005543056002E04B4D056000BF00BF444D72
:101390006D6805F0F0010909484D6B5C0568DD409A
:1013A00045603F4D6D6805F4E061090A434D6B5C93
:1013B0004568DD4085603A4D6D6805F46051C90AA5
:1013C0003E4D6B5C4568DD40C560354D6D6805F48C
:1013D0004041890B3A4D6B5CC568B5FBF3F505617F
:1013E00030BD29B12E4A526902432D4B5A6104E0A7
:1013F0002B4A526982432A4B5A61704729B1284AC5
:1014000092690243264B9A6104E0254A926982431D
:10141000234B9A61704729B1214AD2690243204B7C
:10142000DA6104E01E4AD26982431D4BDA617047DB
:1014300029B11B4AD2680243194BDA6004E0184A0A
:10144000D2688243164BDA60704729B1144A126998
:101450000243134B1A6104E0114A12698243104B94
:101460001A61704712494039086070470F49C864D3
:1014700070470B49C87170470948406A40F0807056
:1014800007494862704701460020054A92680A40B1
:101490000AB1012000E000207047014988727047BE
:1014A000001002400000FFF8FFFFF6FE000042427D
:1014B0008004424200127A0000093D002200002010
:1014C000320000200948804709480047FEE7FEE750
:1014D000FEE7FEE7FEE7FEE7FEE7FEE7FEE7FEE7E4
:1014E00004480549054A064B70470000E31500080B
:1014F000ED000008B0000020B0060020B00200207F
:10150000B00200200CB50020019000906C480068EB
:1015100040F480306A49086000BF6948006800F400
:10152000003000900198401C0190009818B9019873
:10153000B0F5A06FF1D16248006800F4003010B13E
:101540000120009001E0002000900098012843D184
:101550005C48006840F010005A490860084600687E
:1015600020F0030008600846006840F002000860B0
:1015700053484068524948600846406848600846F9
:10158000406840F4806048600846406820F47C1061
:1015900048600846406840F4E81048600846006823
:1015A00040F08070086000BF4548006800F000709F
:1015B0000028F9D04248406820F0030040494860C4
:1015C0000846406840F00200486000BF3C48406860
:1015D00000F00C000828F9D10CBD10B5FFF792FF00
:1015E00010BD10B53648006840F00100344908606D
:1015F0000846406834490840314948600846006858
:10160000324908402E4908600846006820F48020CE
:1016100008600846406820F4FE0048604FF41F0050
:101620008860FFF7DAFF4FF000602949086010BDBD
:1016300010B5002100200022214B5B6803F00C0153
:1016400021B1042906D0082928D107E0214B224CDA
:10165000236027E01F4B204C236023E0184B5B687E
:1016600003F47010164B5B6803F48032022303EB23
:10167000904022B9194B4343174C23600DE0104BA7
:101680005B6803F4003323B1144B4343124C2360D3
:1016900003E0104B4343104C236003E00D4B0E4C12
:1016A000236000BF00BF064B5B68C3F303130C4C01
:1016B000E15C094B1B68CB40074C236010BD000068
:1016C00000100240002002400000FFF8FFFFF6FE7D
:1016D00008ED00E000127A003800002000093D000B
:1016E0003C0000200FB41CB5074B06AA7B4469469A
:1016F0000090059800F0DBF80020694600F0EAF859
:101700001CBC5DF814FB0000E50100002DE9F04170
:101710000E460446002020622046E168884730B328
:10172000252805D0D4E901219047206A401CF2E722
:10173000E168204600278847050018D0A5F1410040
:10174000192802D820354FF4006732462946204632
:101750002760FEF705FD40B1012804D0F61D26F0F4
:1017600007060836D8E7361DD6E72846DAE7206AA6
:10177000BDE8F0812DE9F041064600241068752986
:10178000314616A510D0AFF30080002802DA40429F
:1017900013A507E031688A0701D512A502E04907C1
:1017A00004D511A5012401E0AFF3008000210A2235
:1017B00006F1240709E0B0FBF2FCB0FBF2F302FBF8
:1017C0001C00303078541846491C0028F3D12346B9
:1017D0002A463046BDE8F04100F00BB8000000009A
:1017E0002D0000002B000000200000007047704713
:1017F00070472DE9F0470D4699469246044600F1A0
:1018000024080168880604D5E06921F010012160F0
:1018100000E00120A84201DD471B00E00027A1698C
:101820007A1902EB0900081AA0612078C00602D4D8
:101830002046AFF30080002608E0D4E901211AF821
:1018400006009047206A401C761C20624E45F4DB5F
:101850002078C0060AD52046AFF3008006E0D4E920
:10186000012130209047206A401C2062381EA7F1D9
:101870000107F4DC07E0D4E9012118F805009047DE
:10188000206A401C2062281EA5F10105F3DC2046D9
:10189000AFF300802078000602D50220BDE8F08773
:1018A0000120FBE701694A1C02610878704700B516
:1018B0008FB0CDE901310021059105497944CDE989
:1018C000031011466846FFF721FF0FB000BD00006E
:1018D000E5FFFFFF0A6802F8010B0A6070477546D2
:1018E00000F02CF8AE4605006946534620F007008C
:1018F000854618B020B5FFF7F3FDBDE820404FF056
:1019000000064FF000074FF000084FF0000B21F0E9
:101910000701AC46ACE8C009ACE8C009ACE8C009B6
:10192000ACE8C0098D46704710B50446AFF300809F
:101930002046BDE81040FEF725BC00000048704777
:101940004C00002001491820ABBEFEE72600020033
:101950007047000074190008000000204C000000CF
:1019600028010008C01900084C000020640600008F
:10197000440100080000000000000000000000001A
:101980000000000000000000000000000000000057
:10199000000000000000000000000102030401023A
:1019A00003040607080902040608000000A24A040E
:1019B00000000000000000000102030406070809FF
:04000005080000ED02
:00000001FF
